:020000040000FA
:060000000A128A110C280F
:10000800FE00030EF1000A08F2000A128A15252DD7
:100018000A128A110F280A128A11F9250A128A115E
:10002800C6000A128A11FA250A128A11C7000A1292
:100038008A11FB250A128A11FA00B801B901BA011E
:10004800BB01BC01BD01BE01BF01C001C101C201AC
:10005800C301C401C501F90183010A128A110D2CDB
:1000680083120313B10010302C062D04031D3D2804
:100078003E289928C301BC01BD01C201C101FF305E
:10008800AE002E08B1009730A0008630A100803065
:10009800AE002E08A2000A128A15BC240A128A1180
:1000A8008A3083120313AE002E08AA00DF300A122A
:1000B8008A154E240A128A11053083120313A000F0
:1000C8008730A100C030AE002E08A2000A128A159F
:1000D800BC240A128A11233083120313A00086302D
:1000E800A1009030AE002E08A2000A128A15BC2486
:1000F8000A128A119C3083120313AE002E08AA003C
:10010800DF300A128A154E240A128A1156308312D9
:100118000313A0008630A100D030AE002E08A20044
:100128000A128A15BC240A128A112A308312031370
:1001380031060319A028A128C8282330310603193D
:10014800A628A728C828310A0319AB28AC28C8282C
:100158000130AE002E08C307043043020318B52847
:10016800B628EC290A30AE002E08F30041080A121E
:100178008A1563240A128A11831203133107AF0008
:100188002F08C100EC29EC292A303106031DCD289F
:10019800CE28D128C101C301EC2923303106031D23
:1001A800D628D728EC29B53041020318DC28DD28E9
:1001B800E2284108031DE128E22810290A128A15BD
:1001C8003D240A128A11003083120313A0008630DE
:1001D800A100C030AE002E08A2000A128A15BC2465
:1001E8000A128A11333083120313B000BB30AF00F8
:1001F800DF30AE00AE0BFE28AF0BFE28B00BFE289A
:100208000A128A153D240A128A1102308312031336
:10021800C6000030C700EC29B53041020318152983
:100228001629EC29410803191A291B29EC290A1255
:100238008A153D240A128A11773083120313A0000D
:100248008630A1008030AE002E08A2000A128A155E
:10025800BC240A128A11B53083120313A000863019
:10026800A1009030AE002E08A2000A128A15BC2404
:100278000A128A118312031307151215B430AE003F
:100288002E08C500AF299B30AE002E08AA006430A6
:10029800F3000030F4004508AF00B0012F08F50066
:1002A8003008F6000A128A1592260A128A11730873
:1002B800303E0A128A154E240A128A119C30831283
:1002C8000313AE002E08AA000A30A4000030A500CF
:1002D8000A30F3000030F4004508AF00B0012F08E1
:1002E800F5003008F6000A128A1592260A128A11B9
:1002F800740883120313A7007308A6000A128A154C
:10030800D4250A128A11831203132408303E0A12D4
:100318008A154E240A128A119D3083120313AE00E7
:100328002E08AA000A30A4000030A5004508AF0036
:10033800B0012F08A6003008A7000A128A15D42594
:100348000A128A11831203132408303E0A128A15EE
:100358004E240A128A11831203134508031DB52976
:10036800B62947294508031DBA29BB29C728C4014E
:10037800C40A0A128A153D240A128A1112308312FD
:100388000313A0008630A100C030AE002E08A200E2
:100398000A128A15BC240A128A11831203138714BD
:1003A8004D3083120313B0001930AF004F30AE0048
:1003B800AE0BDC29AF0BDC29B00BDC290A128A153D
:1003C8003D240A128A118312031307118710121190
:1003D8000130BC070318BD0A0030BD0710303C06C9
:1003E8003D04031DF829F9296D2ABC01BD01420805
:1003F8000319FF29012A0130022A0030AE002E0815
:10040800C200C830AE002E08AA006430F3000030E5
:10041800F4004108AF00B0012F08F5003008F600DD
:100428000A128A1592260A128A117308303E0A1295
:100438008A154E240A128A11C93083120313AE009A
:100448002E08AA000A30A4000030A5000A30F300E4
:100458000030F4004108AF00B0012F08F500300863
:10046800F6000A128A1592260A128A117408831253
:100478000313A7007308A6000A128A15D4250A12C6
:100488008A11831203132408303E0A128A154E2457
:100498000A128A11CA3083120313AE002E08AA006A
:1004A8000A30A4000030A5004108AF00B0012F08B1
:1004B800A6003008A7000A128A15D4250A128A1144
:1004C800831203132408303E0A128A154E240A1296
:1004D8008A118312031342080319732A742A812A82
:1004E8003430A0008730A100C830AE002E08A2002A
:1004F8000A128A15BC240A128A11080083120313EF
:10050800B10010302C062D04031D8B2A8C2AC22A18
:10051800C001C501F901BF01BA01BB01BE01FF302D
:10052800AE002E08B1004530A0008630A100803012
:10053800AE002E08A2000A128A15BC240A128A11DB
:100548002D3083120313A0008730A100C030AE0005
:100558002E08A2000A128A15BC240A128A115630E3
:1005680083120313A0008630A100D030AE002E08FD
:10057800A2000A128A15BC240A128A112A30831290
:10058800031331060319C92ACA2A102B233031064E
:100598000319CF2AD02A102B310A0319D42AD52AB5
:1005A800102B0130AE002E08C0070330400203189C
:1005B800DE2ADF2AF12A0A30AE002E08F3004508A9
:1005C8000A128A1563240A128A1183120313310747
:1005D800AF002F08C500BF013D2B03304002031CAC
:1005E800F62AF72A3D2B053040020318FC2AFD2A7B
:1005F8003D2B0A30AE002E08F30079080A128A153E
:1006080063240A128A11831203133107AF002F08DB
:10061800F900BF01BF0A3D2B2A303106031D152BF7
:10062800162B292B3F08031D1A2B1B2B1E2BC5012C
:10063800C0013D2B3F03031D222B232B3D2BF9012A
:100648000230AE002E08C0003D2B23303106031DBA
:100658002E2B2F2B3D2BC4010A128A153D240A127A
:100668008A11073083120313C6000030C70007152C
:1006780012150130BA070318BB0A0030BB07103047
:100688003A063B04031D492B4A2BD82BBA01BB0160
:100698003E080319502B522B0130532B0030AE006B
:1006A8002E08BE00C630AE002E08AA000A30F3009D
:1006B8000030F4007908AF00B0012F08F5003008C9
:1006C800F6000A128A1592260A128A117308303E19
:1006D8000A128A154E240A128A11C730831203138C
:1006E800AE002E08AA000A30A4000030A500790840
:1006F800AF00B0012F08A6003008A7000A128A151B
:10070800D4250A128A11831203132408303E0A12D0
:100718008A154E240A128A11C83083120313AE00B8
:100728002E08AA003A300A128A154E240A128A1193
:10073800C93083120313AE002E08AA000A30F30052
:100748000030F4004508AF00B0012F08F50030086C
:10075800F6000A128A1592260A128A117308303E88
:100768000A128A154E240A128A11CA3083120313F8
:10077800AE002E08AA000A30A4000030A5004508E3
:10078800AF00B0012F08A6003008A7000A128A158A
:10079800D4250A128A11831203132408303E0A1240
:1007A8008A154E240A128A11831203133E0803196C
:1007B800DE2BDF2B0C2CFC2B3530A0008730A10062
:1007C800C930AE002E08A2000A128A15BC240A12EB
:1007D8008A110C2C3530A0008730A100C630AE003D
:1007E8002E08A2000A128A15BC240A128A110C2C9F
:1007F8003F08AE00AF012F08003A0319042C0C2C57
:100808002E08003A0319E02B013A0319EE2B0C2CA1
:1008180008000A128A1578240A128A1101300A126D
:100828008A1597240A128A1183120313B200320818
:10083800B7008619202C212C262C0A128A155C2533
:100848000A128A1102308312031346064704031D55
:100858002E2C2F2C9C2C3703031D332C342C642C6A
:100868000330C6000030C7001030B5000030B600B5
:100878000A128A153D240A128A11A630831203131C
:10088800A0008630A100C030B2003208A2000A12CF
:100898008A15BC240A128A11333083120313B40058
:1008A800BB30B300DF30B200B20B582CB30B582C5E
:1008B800B40B582C0A128A153D240A128A11532D9A
:1008C80002303706031D692C6A2C732C0430C600CD
:1008D8000030C7001030B5000030B6005E2C033081
:1008E8003706031D782C792C822C0530C600003081
:1008F800C7001030B5000030B6005E2C0430370653
:10090800031D872C882C9B2C1E30B2003208C50092
:10091800F901071512150A128A153D240A128A11BF
:10092800073083120313C6000030C700532D532D20
:10093800073046064704031DA22CA32CD42C0430F0
:100948003706031DA82CA92CBE2C45081E3EB20054
:100958003208C5003C304502031CB32CB42C532D7F
:100968000130B2003208F9074508C43EB200320827
:10097800C500532D05303706031DC32CC42CC92CC4
:100988000930C6000030C700532D06303706031D56
:10099800CE2CCF2C9B2C0A30C6000030C7005E2C12
:1009A800093046064704031DDA2CDB2C9B2C043047
:1009B8003706031DE02CE12C532D07151215942C36
:1009C8000A128A117E250A128A1102308312031331
:1009D800C6000030C7000A128A153D240A128A117F
:1009E800742D0A128A1597250A128A11742D360851
:1009F800AD003508AC0037080A128A1182220A12A3
:100A08008A11742D3608AD003508AC0037080A1273
:100A18008A1182220A128A11742D4408031D152D89
:100A2800162D332D3608AD003508AC0037080A12EC
:100A38008A1134200A128A11831203134403031DF6
:100A4800262D272D742D0A128A153D240A128A1183
:100A5800103083120313B5000030B600122C440383
:100A6800031D372D382D742D3608AD003508AC0020
:100A780037080A128A1182220A128A11742D0A1260
:100A88008A15FB260A128A11742D07111211742D6A
:100A9800071112110230C6000030C700742D8312EE
:100AA80003134708003A03195A2D742D4608013AD2
:100AB8000319E42C033A0319F52C013A0319062DFE
:100AC800073A0319FB2C013A0319112D023A0319AD
:100AD800432D0E3A0319492D033A03194C2D742D51
:100AE8000F3083120313B5000030B600122C0A121F
:100AF8008A110C2883120313AF012F08803EAC0023
:100B08002C08AA00FF300A128A154E240A128A11EC
:100B1800033083120313AE008A30AD005530AC00A9
:100B2800AC0B942DAD0B942DAE0B942D013083128C
:100B38000313AC002C08AF0710302F02031CA52D9F
:100B4800A62D812D6730A0008630A100C030AC00F2
:100B58002C08A2000A128A15BC240A128A11343001
:100B680083120313A0008630A1009030AC002C083B
:100B7800A2000A128A15BC240A128A1183120313CE
:100B8800AF012F08D03EAC002C08AA00FF300A1293
:100B98008A154E240A128A11033083120313AE00F9
:100BA8008A30AD005530AC00AC0BD82DAD0BD82D2C
:100BB800AE0BD82D013083120313AC002C08AF07FD
:100BC80010302F02031CE92DEA2DC52D4D3083125C
:100BD8000313AE001930AD004F30AC00AC0BF22D52
:100BE800AD0BF22DAE0BF22D0800013400340134A8
:100C000020342034543465346D3470342E34203420
:100C100049346E34763461346C346934643420344D
:100C20002034003420342034533465347434203478
:100C30007434683465342034543469346D34653424
:100C400020342034003428344C3449344D34493471
:100C5000543420343A34203431343834303420346D
:100C6000433429342034003420344D34693463341F
:100C700072346F34773461347634653420344F34D1
:100C8000763465346E34203400345334453454346F
:100C90002034543449344D344534203428344D34D0
:100CA0004D343A3453345334293400342A343A34EA
:100CB00043344C34453441345234203420342334CA
:100CC0003A3445344E3454344534523400342034AC
:100CD000203450346F3477346534723469346E3470
:100CE000673420344F344E342034203400342034E0
:100CF00020345034723465342D34483465346134D2
:100D0000743469346E346734203420340034203431
:100D100034342E34533474346134723474342F3494
:100D200052346534733475346D346534003453345F
:100D3000453454342034543445344D345034203404
:100D4000283420344334293420340034203470349F
:100D50006F3477346534723420343D342034393480
:100D6000303430345734203400342034543469342F
:100D70006D3465342034523465346D342E343D3452
:100D80002034003450346C34653461347334653449
:100D9000203443346C346F34733465340034443459
:100DA0004F344F34523420346934733420344F3448
:100DB000703465346E34003433342E3443346F343D
:100DC0006E34763465346334743469346F346E341D
:100DD00000342034543469346D346534203455344F
:100DE0007034213420340034203435342E345034DF
:100DF00061347534733465340034543449344D34BB
:100E0000453420343D3420340034543445344D349A
:100E1000503420343D342034003432342E344734BE
:100E2000723469346C346C34003431342E344D34C3
:100E30006934633472346F340034203436342E34E1
:100E4000533474346F347034003434342E345334A7
:100E500074346134723474340034543449344D344D
:100E600045342D34203400342034203420340034F0
:100E70008312031388110815881408146430F300D2
:100E80000030F400FF30F3070318F40AFF30F407D2
:100E9000730A031D4F2F740A031D4F2F502F422F2B
:100EA000831203130618552F562F582F0130F22F97
:100EB00086185B2F5C2F5E2F0230F22F0619612FF0
:100EC000622F642F0330F22F88150811881408143C
:100ED0006430F3000030F400FF30F3070318F40A25
:100EE000FF30F4077408803AFF0080307F02031D52
:100EF0007B2F0130730203187E2F7F2F6C2F8312FC
:100F000003130618842F852F872F0430F22F86189D
:100F10008A2F8B2F8D2F0530F22F0619902F912FAE
:100F2000932F0630F22F88150815881008146430A6
:100F3000F3000030F400FF30F3070318F40AFF3029
:100F4000F4077408803AFF0080307F02031DAA2F47
:100F5000013073020318AD2FAE2F9B2F83120313A2
:100F60000618B32FB42FB62F0730F22F8618B92FDB
:100F7000BA2FBC2F0830F22F0619BF2FC02FC22F57
:100F80000930F22F88150815881408106430F30012
:100F90000030F400FF30F3070318F40AFF30F407C1
:100FA0007408803AFF0080307F02031DD92F013082
:100FB00073020318DC2FDD2FCA2F831203130618C8
:100FC000E22FE32FE52F2A30F22F8618E82FE92FA2
:100FD000EB2F0030F22F0619EE2FEF2FF12F2330D9
:100FE000F22FFF3008008312031312149214FA3008
:100FF0008316031392008C1483120313121108003A
:10100000FF1B0A2883137F1883170008840A03191B
:10101000FF0A08007F087F398A000408840A031940
:04102000FF0A820041
:10184400831603138801091189100A128A152F2699
:101854000A128A150800831603130608073886003F
:101864000808F039880081138312031388150815BA
:10187400881408140800F30101300A128A15EF24B1
:101884000A128A150430F8003D30F700F70B482C93
:10189400F80B482C4D2C080083120313AB00F30102
:1018A4002A080A128A15EF240A128A15F301F30A88
:1018B400831203132B080A128A15EF240A128A15BD
:1018C4000800F600F501761C682C692C6D2C730851
:1018D400F4007408F5070310F30D0310F60C7608F2
:1018E400031D752C762C652C750808000A128A15C0
:1018F40022240A128A150A128A152D240A128A151C
:101904008316031307118312031307110A128A1192
:10191400F3270A128A150B178B17831203138710E8
:1019240083160313871086150800F6000A128A111D
:1019340038270A128A15F5007508F7007608031D82
:10194400A42CA52CA72C7708BB2C770A0319AB2C45
:10195400AC2CB32C7A080319B02CB12CB32CFA019B
:10196400A52C770A031DB72CB82CBA2CFA01FA0A55
:10197400FF300800F3018312031322080A128A15A8
:10198400EF240A128A15DE2CF301F30A2108FF0062
:10199400200884000A128A1500200A128A150A12E5
:1019A4008A15EF240A128A15013083120313A00743
:1019B4000318A10A0030A107831203132108FF00B2
:1019C400200884000A128A1500200A128A15003A97
:1019D400031DED2CEE2CC62C0800F6007318F32C16
:1019E400F72C831203130915FA2C8312031309111C
:1019F4007608F03988008914A630F400F40B002D21
:101A0400000083120313891076080F39F4000330A1
:101A14000310F40DFF3E031D0A2D0310740D8800FE
:101A24008914A630F400F40B152D0000831203135F
:101A340089101B30F5009E30F400F40B1F2DF50BBC
:101A44001F2D00000800831203138C1C2A2D2B2D3C
:101A5400552D0130B8070318B90A0030B907E23030
:101A64003806043003193906031D392D3A2D542D37
:101A7400B801B90145080319402D412D442D013009
:101A8400C502542D4508031D482D492D542D7908B0
:101A940003194D2D4E2D542D0130F9023B30F00029
:101AA4007008C5008C1072088A00710E8300FE0E47
:101AB4007E0E0900831203138619612D622D962D63
:101AC4001211071187140A128A153D240A128A1565
:101AD400CF3083120313A0008630A100C030A300CE
:101AE4002308A2000A128A15BC240A128A15C230DD
:101AF40083120313A0008630A1009030A3002308B2
:101B0400A2000A128A15BC240A128A15831203132E
:101B1400861D8D2D8E2D882D8710121507150A12FE
:101B24008A153D240A128A150800153083120313FE
:101B3400A0008730A1008030F7007708A2000A12C5
:101B44008A15BC240A128A150D3083120313A000CF
:101B54008730A100C030F7007708A2000A128A1566
:101B6400BC240A128A15DC3083120313A0008630C9
:101B7400A1009030F7007708A2000A128A15BC244D
:101B84000A128A15253083120313A0008730A1009E
:101B9400D030F7007708A2000A128A15BC240A1272
:101BA4008A15080083120313A901A71FDA2DDB2D60
:101BB400E22DA609A709A60A0319A70AA901A90AD9
:101BC400A51FE52DE62DEB2DA409A509A40A0319EB
:101BD400A50A240825040319F02DF12D202EA801AF
:101BE400A80AFF2D01300310A40DA50DFF3E031D0F
:101BF400F52D0130F8007808A807A51F022E032E42
:101C0400F42D25082702031D092E24082602031C8F
:101C14000C2E0D2E132E2408A6022508031CA70340
:101C2400A70201300310A50CA40CFF3E031D142EC3
:101C34000130A802031D1F2E202E032E290803198C
:101C4400242E252E2A2EA609A709A60A0319A70AB7
:101C54002708A5002608A4000800C330F800CD30EA
:101C6400F700F70B332EF80B332EF30133300A123F
:101C74008A15EF240A128A151B30F8009E30F700EB
:101C8400F70B422EF80B422E0000F30133300A12F8
:101C94008A15EF240A128A15A630F700F70B502E86
:101CA4000000F30133300A128A15EF240A128A1550
:101CB4005B2E5C2E0000F30102300A128A15EF2419
:101CC4000A128A15A630F700F70B662E0000F301FE
:101CD40028300A128A15EF240A128A15A630F70052
:101CE400F70B722E0000F30101300A128A15EF245B
:101CF4000A128A150430F8003D30F700F70B802EE5
:101D0400F80B802E852EF3010C300A128A15EF246D
:101D14000A128A15A630F700F70B8E2E0000080071
:101D240083120313A101F41F982E992EA02EF309F8
:101D3400F409F30A0319F40AA101A10AF61FA32E58
:101D4400A42EAD2EF509F609F50A0319F60A013099
:101D5400F7007708A106A201A3017308740403190C
:101D6400B42EB52EEC2EA001A00AC32E0130031010
:101D7400F30DF40DFF3E031DB92E0130F700770873
:101D8400A007F41FC62EC72EB82E01300310A20DD3
:101D9400A30DFF3E031DC82E74087602031DD42E26
:101DA40073087502031CD72ED82EDF2E7308F50294
:101DB4007408031CF603F602221401300310F40C19
:101DC400F30CFF3E031DE02E0130A002031DEB2E99
:101DD400EC2EC72E21080319F02EF12EF62EA2099F
:101DE400A309A20A0319A30A2308F4002208F30092
:101DF40008000A128A155C250A128A15FD3083121E
:101E04000313A0008630A1008030AC002C08A2008F
:101E14000A128A15BC240A128A1589308312031304
:101E2400AC002C08AA000A30F3000030F400790852
:101E3400AD00AE012D08F5002E08F6000A128A1531
:101E440092260A128A157308303E0A128A154E2405
:101E54000A128A158A3083120313AC002C08AA00D4
:101E64000A30A4000030A5007908AD00AE012D08A9
:101E7400A6002E08A7000A128A15D4250A128A156C
:101E8400831203132408303E0A128A154E240A12C0
:101E94008A158B3083120313AC002C08AA003A3045
:101EA4000A128A154E240A128A158C3083120313DF
:101EB400AC002C08AA000A30F3000030F4004508F6
:101EC400AD00AE012D08F5002E08F6000A128A15A1
:101ED40092260A128A157308303E0A128A154E2475
:101EE4000A128A158D3083120313AC002C08AA0041
:101EF4000A30A4000030A5004508AD00AE012D084D
:101F0400A6002E08A7000A128A15D4250A128A15DB
:101F1400831203132408303E0A128A154E240A122F
:101F24008A15873083120313A0008630A100C030C5
:101F3400AC002C08A2000A128A15BC240A128A15C5
:101F4400F43083120313A0008630A1009030AC005B
:101F54002C08A2000A128A15BC240A128A151D3004
:101F640083120313A0008730A100D030AC002C08EA
:101F7400A2000A128A15BC240A128A1583120313BA
:101F84004508031DC62FC72FFF2F7908031DCB2F2C
:101F9400CC2FFF2F0A128A153D240A128A15E93024
:101FA40083120313A0008630A100C030AC002C08BB
:101FB400A2000A128A15BC240A128A15831203137A
:101FC40087144D3083120313AE001930AD004F3027
:101FD400AC00AC0BEB2FAD0BEB2FAE0BEB2F0A12BF
:101FE4008A153D240A128A158312031387100711D8
:0C1FF40012110230C6000030C7000800C7
:02400E00FB3F76
:00000001FF
